:020000040000fa
:080000000001040000000000f3
:020000040000fa
:10020000cfdc20000e7922000e01880000000000e3
:100210000c0007006081240001002000110007008d
:10022000000020000000e000020032000000020098
:100230000000000078460200000000000040da00e4
:100240000000fe004440a900e00520000000e0009e
:100250000300320000002000a00188004440a800f4
:100260000000060091018800800078000000eb008b
:1002700015003700e280400032a0b4009101ba00be
:10028000e280400032a0b4009102ba00e280400057
:1002900032a0b4000002eb00472bde00f507b200ed
:1002a000602ce10004003a000059eb008301e900f2
:1002b000fdff3e00040037006128e100010032002c
:1002c0000082eb00040007001101ba000200e00008
:1002d000e8ff3a00000006003159ba008301e90046
:1002e0000c0032002159ba008301e90008003200f5
:1002f0000400e00003003a00e280400032a0b400b5
:10030000f5ff370011d9ba008301e900faff3a007e
:100310008100e800e180400032a0b4000000060047
:100320000a00fa0080017800e20f500028003e0029
:10033000506e8000e10f500008003200e0212000e4
:100340000000e0000500320064212000852120002b
:10035000a62120008001780004003700c42020007e
:10036000e5202000062120004321200014409000b9
:100370000004e000040035008009eb001440900008
:100380000074a00010429800154090000028a300bf
:1003900003003a00154090000024a000904298000d
:1003a0008001eb0007003700154090000008a30013
:1003b000fdff320063c078000000fb00000b7800f6
:1003c0008301e800828f5100f7ff3a0008003700f0
:1003d00030002000b0bf9f00c3bf9f00d1bf9f006f
:1003e000e2bf9f006a80570000c0da006fb9970033
:1003f000020078000080fa0000000600020ab9003e
:10040000001bb9000200b8008100420081004300d7
:1004100000000600889fbe008a9fbe00010578008c
:100420000100e0000400350008003c000000e0008e
:10043000200032000500370060001000e080180046
:1004400002003b0001f02c001a0037000004be003f
:100450006011b8006b0920000982cf00020039004a
:100460000882cf000441b000694252000e00320001
:1004700008003b0082817100610164008904d100a1
:100480000884d3008b05e8000442e800f9ff3a0035
:10049000050037000804440089844c008b05e900fe
:1004a0000442e900fbff3a00fc0107000af0a70044
:1004b00001f0a0004f05be004f04be000000060082
:1004c000140020001b023700889fbe008a9fbe00d8
:1004d0008c1f7800320207003902330003866c005b
:1004e0006450e1002e0032006420e100330032004d
:1004f0006150e1002f0032006120e1003100320044
:1005000085855500eb07b000090020000804200095
:10051000050037000804440089844c000a003100bb
:100520000603430087834b000001530081815b0079
:10053000f8ff33000203be000800a00008044400d6
:1005400089844c00f6ff3900c639dd008301730051
:1005500001003200130020008904d1000884d30078
:100560000998a300050032000800a7000300a000be
:100570008904d1000884d3008b05e8008904d100e8
:100580000884d3000001eb000281d200c301070000
:1005900001f0a1000cf0a70001f0a000110237004b
:1005a0006420e100130232000801be000200be0018
:1005b000f7ff37006120e1000e0232006000b80052
:1005c000f3ff37000000200001f82700f0ff37009c
:1005d0000001be000a0207000470a70003f0a1009a
:1005e00003f8a30013003a006509b10010003200bf
:1005f000090035006928e1000200350001002800eb
:100600000000050000004000818048008502e900ec
:10061000fcff3a0000000600f88f4200050035009c
:100620008100d1000080d3008502e800fcff3a0081
:10063000000006008000eb000000050003f0a200af
:10064000889fbe008a9fbe008c1f7800d4010700df
:10065000db0133006450e1004f0032006420e10010
:100660005200320003826c0007003b000905d000f5
:100670000306d000820f54000c065d000200390012
:100680000200320089017800030678008582550057
:1006900004003d000003fd008103fd008502ea0027
:1006a0008b854200840f720002003b006000100046
:1006b000e08018006011b8000005eb007a28e10026
:1006c0000a00390006007800c75ddd00f707b200b8
:1006d000878075002d003700828171000a01780043
:1006e000610560008180d1000080d3008502e900af
:1006f000f9ff3b00060440008784480002003b00ed
:1007000060041400e0841c000988a3000700320084
:100710008a81710082817100610164008904d100c5
:100720000884d3008b05e800170037000978a30080
:1007300013003a000b00e000130034008b05e900c1
:100740000804440089844c000a4474000978a3001a
:100750000d003a000b00e000070034008b05e900b3
:100760000804440089844c0001003a000b0020007a
:100770000978a300f7ff32000001eb000200370008
:10078000828171000a017800440107000cf0a70083
:1007900001f0a000930137006420e10002003a005c
:1007a000838f6c00930133000801be000200be007d
:1007b0008c013700889fbe008a9fbe008c1f780086
:1007c000770107007e01330003866c006450e1006e
:1007d000240032006420e100270032006150e10073
:1007e000220032006120e100210032008b854200ae
:1007f000eb07b1000134b800003ab8000804420029
:1008000089844a00013ab8000030b800888040006e
:1008100009014a00040033000000400081804800c4
:10082000020149008b05e900c909dd008301700060
:100830000100320013002000c814de004814dd005f
:100840004709de001200b200c808de00088470000c
:100850001201070001f0a1000cf0a70001f0a000b8
:10086000600137006120e100620132000801be0032
:100870000200be00f7ff37006150e100fcff3a00c4
:100880005c0137000001be005d0107000470a70095
:1008900003f0a1006509b100160032000d0035001b
:1008a0006828e10006003500f0ff2f00f1ff270067
:1008b0000300e00013003b000100280000000500d9
:1008c00000004000818048008502e900fcff3a00fa
:1008d00008003700f88f420002003c008000eb0067
:1008e000000005008100d1000080d3008502e800ef
:1008f000fcff3a000300e00002003b006000100033
:10090000e080180000000600f4ff2f000901370006
:100910000c00fa00889fbe008a9fbe008c9fbe001c
:100920001f0107000206be00840578000200be0019
:10093000020020004701070005003a008b02b300c7
:10094000120020004301070001003a00f8856d0005
:100950000c01be00c60007000800be009b0032006c
:100960000b08a3009e003a000df0a7000be0a000ca
:1009700009f0a7000bf0a00009f0a1000801be00db
:10098000bb0007000bf0a6009500320001003c0000
:100990000bd0a0008acf7500b20033006000b80011
:1009a0006250e10099003900a1003e000b28a3002d
:1009b000a2003a000bf8a300060032000b58a30077
:1009c000a70032000801be00a90007000800be0011
:1009d000940032000800be00450107000004be007c
:1009e000050578000bf0a7000b30a6000bf0a10066
:1009f0005b079800324f200053f32300b0fe07003e
:100a000005003d000800be0012002000450107005f
:100a10000004be000a05e9004a0798006150b900c9
:100a20007cfe0700008fbe000c01be0061ff0700c6
:100a300094ff0700300798000100e00002003d002d
:100a400060001000e0801800f2ff2700820f5000c5
:100a5000e08f580064003e000c00be0089ff0700d4
:100a600020079800f2072000820f5000e08f580006
:100a700005003c0012f82f00f3ff2f00820f5000fa
:100a8000838f580009003d000a00e0000300320097
:100a900001003c000201ea00020578006000b80095
:100aa000200798003a079800190037003e00900090
:100ab0006100b90057fe0700809fbe000c00be0019
:100ac0004109dd004811de007208b100e1000700b5
:100ad0000005be001e01be0036ff07004f01be002c
:100ae000d6fe0700809fbe000c00be000a01be00bb
:100af000d2fe07001e01be002eff07004f01be0000
:100b0000cffe07008221270013f3230029ff0700ef
:100b10000005be002e0090006100b9003dfe0700f8
:100b200001f0a2000c01be00c5fe07000006be00d9
:100b30000800be001d0107000c01be001dff0700dc
:100b40000a01be00befe0700809fbe004a000700eb
:100b50002e0590000af0a7000a05ea0005003700fc
:100b60000800be000801be0012ff07000004be001e
:100b70000c00be000801be000a00a7000dff070020
:100b80000006be000a05d100f5ff3a005e019000a4
:100b900002e0a600030037000001be003600070097
:100ba00049fe07000004be004f00be0056010700ca
:100bb0000801be00fffe07003e019000d9000700bb
:100bc000de0590000bf0a70001f0a2004f06be006a
:100bd0004f05be004f04be000080fa000000060072
:100be00025000700f9ff3700270007006000b80064
:100bf0000bd0a7000bc0a0000be0a7000bc0a20009
:100c00000bc0a70001f82700f0ff37000df8a30084
:100c1000020032001e000700190007000bf8a300b5
:100c2000eaff32000b30a70001f0a200e7ff370017
:100c30000df8a300f9ff3a00f7ff37000801be00e6
:100c40000b000700e6ff320001003c000df0a2009f
:100c50006000b8000df0a70009000700dbff3700b7
:100c60000b000700f1ff2700f0ff2f00d7ff370030
:100c70000100070012fe370001f823000000050004
:100c800001f82700000005002002200001003700c5
:100c9000100220001055880000000600810020008e
:100ca000618055000b003d000b00200061fe2f000d
:100cb0000100e1001d0034008281710061016400c7
:100cc0008904d1000884d3000000e800faff3a004c
:100cd00071002000610064000300700002006000e9
:100ce0000900320061044400e0844c000988a5003a
:100cf000050032008b05e8006808e10002003a00b8
:100d00008904d1000884d300f20f20000258e100ca
:100d100005003d00c75ddd00f907b2008980750060
:100d200008007800000006000bf827008b00780010
:100d300000000500889fbe008a9fbe00841f7800c7
:100d4000170007004f00780011003300f0ff2f005c
:100d5000838f6c0006003b00040565000a00a700b5
:100d60000800370009f0a600100020000800370036
:100d7000820f5400838f5c000300390010002000b4
:100d800001003e000000200009f0a7000000ea007a
:100d90004f05be004f04be000000e000000006004a
:100da0000004be00160007000003be000405be00dc
:100db0000200be0012000700844f7500000006000c
:100dc0000200be006450e100050036006420e1002e
:100dd000020036000968a30001003a000800be00c6
:100de0000160a0004f0678004f05be004f04be0012
:100df00000000600f0ff2f00f1ff2700f9ff370089
:100e0000c70ade00f107b200f50fb2000800320099
:100e1000e1cf4200020032000170a0002400050072
:100e2000810f700001003200040805004400050035
:100e3000810f700002003a00140005008502e900ed
:100e40000000400081c04800fcff3b000170a00092
:100e500024000500889fbe008a9fbe000003be00dc
:100e6000e7ff07008505780082815200020020001c
:100e70006220e10004003a00f307b10004003500ed
:100e80007718e100040035000600be0014003700aa
:100e90006000b8000f003700f50f2000faff2f00a8
:100ea0008502d1000a85d3008301e900fcff3b00e5
:100eb0008184620000046500890f7400f2ff320033
:100ec0008582ea000a85ea008184620000046500e8
:100ed00072ff070007f0a70001f0a0000081eb00ff
:100ee0000200e0004f05be004f04be0000000600f7
:100ef0000003be00c2ff07006220e10002003200d2
:100f00000600be0005000500e507b100f107b200cc
:100f100004f023008480700007f0a70001f0a00017
:100f2000240005000003be00b5ff07006220e100b9
:100f3000020032000600be000000060085024100eb
:100f4000e30f20000328e10005003c00a3fe2f0072
:100f50000328e10007003d000500200001003700e4
:100f6000f50f200020022000105588006000b80016
:100f700008003700130020008381520005003d0067
:100f80008100d1000080d3008301e800fcff3a001b
:100f900005002000c72add00f107b200858070003f
:100fa00007f0a70001f0a00000000600889fbe0027
:100fb0008a9fbe008c9fbe00cdff0700850478008d
:100fc0000005be006420e10049003e006220e1000f
:100fd00003003200090035000bf8a3004400320082
:100fe0000bf8a30008003200100220001055880002
:100ff000f0ff2f00f1ff27003d00370001f82f0020
:10100000000020003a0037003d0007008bfd07007c
:101010000006be000a00be00324f200053f323003a
:1010200039fe0700060034000c00be003400070043
:1010300082fd07000006be000a00be000200370065
:101040008904e9000c00be002d000700d9fd07004f
:101050002b0007007afd07000001be000c00be0057
:1010600019fd07000005be000001be00d1fd07000c
:101070000006be00a2f32300430d2c0070fd070004
:10108000809fbe000c00be00d2e32700d3f02b00ef
:10109000c8fd07004f01be000bfd07000006be00a3
:1010a0000a01be00c3fd07000a01be0064fd07007f
:1010b0000006be006148b900d6fc07000005be006e
:1010c00032082800e3952b00bafd07000c01be0092
:1010d0005bfd07000006be000a00be0002002800fb
:1010e00013f32300b3fd07000c01be0054fd0700fd
:1010f0004f06be004f05be004f04be0000000600b4
:1011000003f0230002000500889fbe008a9fbe00f6
:101110008c9fbe000004be0039ff07000800be001f
:101120006420e10048003e00550032007221270093
:10113000132b2400f4fd070047003c000800be000c
:10114000c2ec2800e32c2c00ddfc07004700350032
:101150000800be0001f0a1000200200003382300b7
:10116000d7fc0700430035000800be00b2a32a00e8
:1011700083fb23008ffd07000200200003f0230003
:1011800001f0a70003f0a0002dfd0700bdfd070042
:101190000005be009ffc070001f0a2000006be0093
:1011a0000200280013f3230082fd07000801be009f
:1011b00023fd0700809fbe000c00be0032082800ff
:1011c000e3952b007bfd07004f01be001cfd0700cf
:1011d0000006be000001be0076fd0700809fbe0035
:1011e0004241250083b8230072fd07000200200061
:1011f00003e8230012fd07000c01be006dfd07008f
:101200000006be004f00be00f2f92b00c3d423003d
:1012100068fd07000200200003f0230008fd07001e
:101220000c01be0005fd07000001be000c00be0061
:10123000a5fc07000200200003f0230000fd0700ca
:101240006101450037ff07004f06be004f05be0095
:101250004f04be000000060001f827000000200037
:101260002202200012558800f7ff37006000b80006
:10127000fbff370001f8230000002000f2ff3700d9
:1012800009f8a300f0ff32006000b800eeff37005d
:10129000881f7800000478005001be004000be00a6
:1012a000040040008580480006014900878149000c
:1012b000009cbe000294be000400e1000588e1002d
:1012c0000690e1000798e100020031006800440048
:1012d0001008e8004f04780000000600f48747007b
:1012e000889fbe008a9fbe008c9fbe008e1f780024
:1012f0000205be000004be00d4b79f00e5b79f0002
:10130000f6b79f0087bf9f000000eb00c0b79f00ab
:10131000b0b79f00a0b79f0090b79f0080b79f0015
:101320000d042000bfb097004fb0970000014000af
:101330000000e0000f003d004f08de0000007100db
:10134000c0b79f009e00070001003d001200200072
:10135000a100070001003d0012002000a6000700c8
:10136000b1000700b60007000f004000c8ff0700eb
:10137000220037004f08de0000067100ccb79f0046
:101380008f00070001003d001200200092000700be
:1013900001003d001200200097000700a200070096
:1013a0000fb297009fb297002fb39700bfb397007b
:1013b000a90007000000520081805a0002015b0072
:1013c00083815b0080b79f0091b79f00a2b79f0009
:1013d000b3b79f000007eb009f0007000020e1006b
:1013e00001a8e10002b0e10003b8e1000100310012
:1013f0001e0020000e005600c0b79f004fb297009d
:101400000400e0000700350010002000010020006b
:101410006011b80008047000898470000a0571002a
:101420008b8571008d06e900beff3a000400e000e4
:1014300003003d00820007000f00400094ff0700fa
:101440004fa897000000e00004003a000fb4970096
:101450009fb497002fb59700bfb597009400070081
:101460004f0778004f06be004f05be004f04be0078
:101470004f01b10000000600881f7800180020000e
:10148000881f780095ff07008f87e9004f047800d8
:1014900000000600801feb0090ff07008f87e90027
:1014a00000000600889fbe008a9fbe008c1f780047
:1014b0006e00070007003d0073000700e00f5b00af
:1014c000e08f5b0007003d00320007000006eb00e4
:1014d000040037003400070002003d002a00070026
:1014e0001c00200072000700e3ff07000203be009b
:1014f0000002be000c00e0000100320022000700e4
:101500000400be000601be004f0678004f05be0075
:101510004f04be0000000600889fbe008a9fbe00e8
:101520008c1f78005100070005003d0056000700a1
:10153000e00f5b00e08f5b0006003d000400370019
:101540001900070003003d006000b8006011b800fa
:101550001000070056000700ceff07000203be0080
:101560000002be000c00e00001003200060007008f
:101570000400be000601be004f0678004f05be0005
:101580004f04be00000006006000b8006011b80003
:1015900000003700040250008582580006035900fd
:1015a00087835900000006000006eb00e00f5200a0
:1015b000e08f5a00e00f5b00e08f5b000000060048
:1015c0000180400090b79f000001eb008fb09700b2
:1015d0000100e000000006000200700090b79f00cc
:1015e0000180400080b79f000001eb00ffa897003a
:1015f0000100e000000006000200700080b79f00bc
:10160000018040006faa9700cf20de00010070002b
:10161000f0af9f0004024200250007004f18de00d3
:101620000002720000000600e4af9f0008044400be
:1016300089844c000a054d008b854d000000060092
:101640003fb29700cfb297005fb39700efb3970018
:1016500000fe2f00000006003fb09700cfb09700bb
:101660005fb19700efb19700000006000205be00d1
:101670000004be00e00f5000e08f5800e00f59005a
:10168000e08f5900000006006000b8006011b8004b
:1016900008045000898458000a0559008b855900b8
:1016a0001c002000e00f5200e08f5a0000000600ee
:1016b0000800be000a01be00000006002800fa0073
:1016c000889fbe008a9fbe008c9fbe0003866b0071
:1016d000350207000028a30064003a000128a30097
:1016e00067003a000008a30062003a000108a30066
:1016f00065003a001e009000be0890008106400080
:10170000ed3fb100f4805700ee019000111ab800cf
:101710008e099000311bb8009e099000311cb80062
:10172000511db800f485570046000700fe019000e7
:101730003a0007008b85e8003e0007008e09900004
:1017400040000700ee019000340007008b85e800a0
:10175000380007008e099000400007009e099000a5
:101760001b18b800890440000a854800fe0190005b
:10177000340007008b85e80038000700ee01900078
:10178000300007008e0990001b18b8008904400043
:101790000a8548000a98a30008003a0004024200a3
:1017a00085824a0006034b0087834b0008044c00e7
:1017b00089844c000a054d008d06e9008482720080
:1017c000850273004c3add00850272000100320090
:1017d00015002000443ade001400b2004538de0057
:1017e000cb45dd000b007000c540de00cb4ddd00b9
:1017f0008b8070004549de00cb55dd000b01710088
:10180000c551de000d0378000002070003f0a100bf
:101810000cf0a70003f0a000f70137001b18b80078
:101820008502400006834800e0834b0060044c00c2
:10183000070037001b18b8000603400087834800e4
:10184000faff37001b18b8008703400008844800df
:10185000e0844c0060054d00000006001b18b80035
:101860000804400089844800faff37000108a300fb
:10187000de013a005800be005801be00e3ff370009
:101880000008a300d9013a0009047800f9ff3700e5
:10189000810378005afd07000001be006000b80017
:1018a0000478a30013003a006220e10015003e0016
:1018b0000d0039008301d1000281d3008180d30063
:1018c0008301d1000281d3008180d3008301d10044
:1018d0000281d3008180d3000538b000c42add0026
:1018e000f300b2008381720007f0a70003f0a000ac
:1018f00000000600f3ff2700f2ff2f006110b9007f
:10190000fbff370003ff2700f7ff37008f1fd100d1
:10191000ea0107008f87e9000000e00000000600f0
:10192000801feb00e50107008f87e9000000e00061
:10193000000006001400fa00889fbe008a9fbe00c7
:101940008c9fbe000005be000206be006800470076
:101950000c90be000a90be00010207006400e10086
:101960001a00320016003e006100e1001a00320049
:101970006e049000fe0490000e0b90009e0b9000f1
:101980006011b8009e0590000b38b100d501200011
:1019900082817100610164008703d1000683d30056
:1019a0008984d3000884d3008502e900f8ff3a0057
:1019b000bafc07000df0a70001f0a0008e0137006f
:1019c000f1ff2700f0ff2f008b01370001f82700ff
:1019d00000002000f7ff37006000b800f5ff370077
:1019e00043fd07000509780000000600809feb001a
:1019f000b20107008f87e9000000e0000000060048
:101a00002800fa00889fbe008a9fbe008c9fbe00ff
:101a100007067800878669000c003b000304780005
:101a20008704780008f0a10009f0a100840f50009d
:101a3000858f5800860f5900890f5c000300330022
:101a40000cf0a20001003a000cf0a10056010700c2
:101a50006400e1005f003200780147006408e100a3
:101a6000610032006c014700748557003200be00ef
:101a70001201be003a04be001a05be001e0390000b
:101a8000be0a90008503530006003d000004fd00df
:101a90008104fd000205fd008305fd008703ea00c7
:101aa000050378000df8a300040032006004140060
:101ab000e0841c0060051d00e0851d006022b80068
:101ac0007d0320000d38e1008006eb000b0039009b
:101ad0004433dd00f300b2008301730039003700a6
:101ae000848272000d027800e10664008b85d100cb
:101af0000a85d3008984d3000884d3008703e900d2
:101b0000f7ff3b0008004000898048000a014900b7
:101b10008b81490004003b0060001000e080180049
:101b200060011900e08119000358a3000900320088
:101b30008d82720084827200610260008301d10094
:101b40000281d3008180d3000080d3000603e80027
:101b50001b0037000348a30017003a000600e0000e
:101b6000170034000603e9000d00a3000000480040
:101b70008180480002014900838149000348a30095
:101b80000f003a000600e000090034000603e900f7
:101b90000000400081804800020149008381490023
:101ba00001003a000003eb000348a300f5ff3200f8
:101bb0006022b800020037008482720061826600f1
:101bc0001201070003f0a1000cf0a70003f0a00031
:101bd00009013700640147006408e10002003a008f
:101be0000df8a30001013a003200be001201be0050
:101bf000010137001400fa00889fbe008a9fbe00d2
:101c00008c9fbe000004be000205be0068004700b5
:101c10000a90be000890be00510107000070a700a6
:101c20000bf0a1000bf8a30020003a009e099000e1
:101c30000e099000fe0090006e0090009e02900041
:101c40003443200084825200eb0032000a003c0042
:101c5000b4fc2f000428e100140034008301d100fb
:101c60000281d3008180d3000080d3008502e80088
:101c7000faff3a00e0003700b40020000428e10039
:101c800007003c000000400081804800020149003c
:101c9000838149008502e900faff3a00d600370047
:101ca0000300280002002000010037006011b80086
:101cb0006000b800d00037002800fa00889fbe00fe
:101cc0008a9fbe008c9fbe0003866b00b600070093
:101cd0006400e100440032006408e1004a00320080
:101ce0006100e100460032006108e1004900320075
:101cf000ec0647006000b8003d02be003d03be0098
:101d0000f48657006011b8003d04be003d05be00da
:101d10007d0320000b0037000000a0008d06e900c5
:101d2000130032000402420085824a0006034b0081
:101d300087834b0000004000818048000201490079
:101d4000838149000802520089825a000a035b001d
:101d50008b835b00f0ff3b000802420089824a004f
:101d60000a034b008b834b008d06e900edff3a0020
:101d70008482720086827200f707b2008782720046
:101d800001003200150020001e0490003e0b900060
:101d900006035400e63fb0000368a30007003200ca
:101da0000000a7000500a0008301d1000281d3003c
:101db0008180d3000080d3000603e8008301d100b6
:101dc0000281d3008180d3000080d3000002eb00a9
:101dd0000482d2008d00070003f0a1000cf0a700e0
:101de00003f0a00084003700640247006408e100ab
:101df0007e0032003400be003401be00f6ff370022
:101e00006108e100790032006011b8006000b8009c
:101e1000f1ff370003ff270002002000fbff37001f
:101e2000889fbe00830478000300e0002c0035008a
:101e300003003c00008270000402710026003200a2
:101e400036432000c50020008383cf000a003900fc
:101e50000541b1008283cf00070039000541b10080
:101e60008183cf00040039000541b1008083cf0099
:101e7000010039000541b10085c353006022b8005c
:101e8000120032000a003b0084827200610260008e
:101e90008301d1000281d3008180d3000080d30070
:101ea0000603e8008743e800f7ff3a000700370021
:101eb0000000400081804800020149008381490000
:101ec0000603e9008743e900f9ff3a004f000700e5
:101ed00009f0a70003f0a0004f04be0000000600b8
:101ee00060001000e080180060011900e081190016
:101ef000d3ff3b00033e2c00f7ff370007f0a200a2
:101f0000bffe37001400fa00889fbe008a9fbe0003
:101f10008c9fbe000004be000205be0068004700a2
:101f20000a90be000890be008d0007000070a70058
:101f30000bf0a1000bf8a30016003a009e029000df
:101f40003043200080825200b0fe2f000028e100c4
:101f50000d003c00b0fc2f000028e1000d00340013
:101f60001e0990008e0890007e0090000501b000d0
:101f70000201d1008180d3000080d3008502e800f7
:101f8000fbff3a001c003700010028000000200081
:101f9000190037006000b800170037004f89de00d5
:101fa000820178009eff3700680447000294be005b
:101fb0000094be00fc0447008694be008494be00da
:101fc0000900780066000700080078006400070038
:101fd00099007800814f70000b003b000800be00a4
:101fe000860007004f00b10003003700f3ff270011
:101ff000f2ff2f006110b9004f06be004f05be0072
:102000004f04be000080fa00000006001800200007
:1020100057002000080453000d003d00060020007a
:1020200097fc2f000740e1001e00340084827200fc
:10203000610260008301d1000281d3008180d3005e
:102040000080d3000804e800f8ff3a0047002000b1
:102050006104600005047400040464000d00320093
:1020600061004000e080480060014900e0814900d3
:1020700003b8a500070032000603e8006538e10058
:1020800004003a008301d1000281d3008180d30093
:102090000080d300f87f20000830e1000300350005
:1020a000080378006000b8006011b8004433dd0018
:1020b000f300b2008301730000000600889fbe0099
:1020c0008a9fbe008c9fbe000404be000605be00b1
:1020d000809fbe00829fbe00560007000406780065
:1020e0000800be000a01be00520007008406780006
:1020f0004f03be004f02be008d4f76007fb09700a9
:1021000013003300f0ff2f008b8f6b0006003b00a5
:102110000d0666000c00a7000a00370007f0a600b5
:10212000100020000a003700880f5200898f5a00e3
:102130008a0f5b008b8f5b000300390010002000ca
:1021400001003e000000200007f0a7000000ea00a8
:102150004f06be004f05be004f04be000000060043
:10216000800078005002be005003be004439de00fb
:10217000f700b200f37f2000030161000900320084
:102180000218e10016003a00850172008301730015
:10219000838173000008200015003a0040002000f1
:1021a000130037008501720083017300838173007f
:1021b00005003a0004a8be0006a8be0010002000da
:1021c0000b0037000201e9000402420085824a0048
:1021d00006034b0087834b000748a300f9ff32003a
:1021e0000740a00004a8be0006a8be0020002000f2
:1021f000800098009200980000000600e4824000f1
:102200001078a30007003200640240001178a30098
:102210003400be001401be00040032000330a700e9
:10222000000006003500be001501be000330a0000e
:102230000000060005ff270005826100070032004c
:102240000428e10001003200240005000600070018
:1022500001003a00440005000408050002000700e0
:10226000f9ff3a00140005006f82610081027000de
:10227000850271008502720000000600800078006f
:102280003004e000feff3a00010050000000e900c9
:10229000000006000c00fa00889fbe0000047800d1
:1022a000cfb09700f0ff2700d0bf9f008004eb0065
:1022b00099bf9f0088bf9f00a8bf9f00200c2000ef
:1022c000b0bf9f007881570070805700ba000700a8
:1022d0000fb89700094878000fb89700080450001d
:1022e000080078004f04be000080fa0000000600dd
:1022f0000001780000c2b300010037000201e800cd
:102300009240780080cf5000fcff3200e9cf5000af
:10231000faff3200d0c2b30080cf500003003a0071
:102320000201e80014c0b300050037000042eb00d2
:10233000b0c2b30080cf500001003a000201e800b3
:102340008000eb0005fd2f00040037006a08b9008b
:1023500000804100850040000201e8009201fb007e
:1023600005804100e90f5000f8ff36000404e0004a
:10237000010032008100ea00010078000000060040
:1023800001002000006e8800116e880011c0b300ab
:10239000e0db20000148780000000600e2db2000be
:1023a0001204e00006003a001000200001002000a6
:1023b000006e8800116e880010c0b30000497800dc
:1023c000d2e62400631c2400006e8000116e8000a1
:1023d0000af807000001be0090032300010020005e
:1023e0000200400083804800006e8800116e880063
:1023f0004088de00cf80de0000f0a1000000060073
:102400000c00fa00889fbe0000047800cfb097004f
:10241000f0ff2700d0bf9f008004eb0099bf9f0012
:1024200088bf9f00a8bf9f00200c2000b0bf9f0066
:102430007881570070805700060607000fb8970094
:10244000094878000fb89700080450000800780089
:102450004f04be000080fa0000000600889fbe0006
:102460008a1f7800804078000004e00021003d00d1
:102470008040ea00d0c6b30080cf5000090034008d
:102480008104fb0042062000110009008204d800ec
:1024900000017800010078004311dd004aaa200005
:1024a0001f0037000100fb0043aa2000390037005d
:1024b000a2002000110009000200d80000017800ed
:1024c000010078004311dd00030141004300dd00fd
:1024d000030040003002be002003be0042209000f6
:1024e000d2209000f22190006221900073fc07003e
:1024f0002e003700d0c6b30080cf50002300340038
:102500008104fb0042062000110009008204d8006b
:1025100000017800010078004311dd004ab5200079
:102520000a014100a8002000110009000800d8009d
:102530004300dd000a00400040229000d0229000bd
:1025400060239000f0239000028890009288900011
:10255000b28990002289900058fc0700801f780003
:1025600001027800110009008804d8000102fd0072
:102570004f0078000402fb004322dd000a02420003
:102580005403be004402be00d8ff37000100fb0028
:1025900043b52000eacf5000c5ff3c004300dd00fa
:1025a000030040005001be004000be004f0578000f
:1025b0004f04be00000006008f03b000889fbe00dd
:1025c0008a9fbe008c9fbe008e1f7800e0b79f00e0
:1025d000f1b79f0082bf9f000000eb00a0b79f00f3
:1025e000e60437008001eb0050c2b30080cf5000fa
:1025f000090032000100fb00efb09700830d0700d7
:10260000e10f4000dd043200afb097008100e80028
:10261000a1b79f00d90437007fb19700924078009e
:10262000d0c2b30080cf50000c00320007003c0045
:102630006d40500080cf50000d0032006b404000d4
:1026400080cf500019003a000e00370000c3b300dd
:1026500080cf500015003a000f0037000330a00073
:102660007fb297000402e800f4b79f00eaff37004a
:102670000300a000ffb297008502e800f5b79f00b5
:10268000e5ff37000310a0007fb697000c06e800b6
:10269000fcb79f00e0ff37000320a0007fb0970049
:1026a0000000e800f0b79f00dbff37000318a3002d
:1026b000010032000300a1000338a3000100320032
:1026c0000320a1000100fb0002fd2f0002004000da
:1026d000e90f500010003e008000eb00c1b79f00e2
:1026e000020278004fb197006a10b900ffb297005c
:1026f0001501fb000001410004014100c2b79f0029
:102700005500fb00f5b79f0004004000e90f5000a2
:102710000d003e00f3ff37000006eb00ccb79f0032
:10272000a0c2b30080cf500007003a000fb8970056
:10273000c000780080bf9f00c1b79f007fb19700a5
:102740000201e800f2b79f00e0c2b3007fb2970039
:10275000944f100021003a00830678000de0a0009d
:102760008400e80064405000914f100004003200e3
:10277000f1b79f008002eb00b5b79f001000370053
:102780000fbe97004c0078008cbf9f00b0b79f0031
:10279000ffb097008180e800f1b79f001300370079
:1027a0003fb297006a20b9000000410003004000da
:1027b000b0b79f00ffb297008502e800f5b79f0011
:1027c0007fb697001c01fb0003fd2f0003004100b2
:1027d000e90f5000f2ff360004003700830678004e
:1027e0000dc0a0000000eb00b0b79f007fb19700c4
:1027f000b2407800f2b79f00c17f9f00c0c6b3000f
:1028000080cf50002700320014003c006840500088
:1028100080cf50009d00320009003c006c40500009
:1028200080cf5000290032006b40400080cf500024
:10283000720032000104e000560432008e003700be
:1028400060c6b30080cf50001c00320063404000df
:1028500080cf500088003a008c00370030c7b300aa
:1028600080cf50001c00320007003c006440500044
:1028700080cf5000130032000040e80080cf5000ad
:102880007d003a001100370050c7b30080cf5000e0
:102890007d0032006340400080cf500076003a0057
:1028a0000b003700000028000d48a30001003a008b
:1028b0000001200080867600ccff37000da0a0002c
:1028c000720037000d60a000700037000d50a000ae
:1028d0000d70a0006d0037008fb99700430078009d
:1028e00083bf9f00000478000000e00001003a0070
:1028f00048d420008004eb00010037008104e80088
:1029000089007800088044001004e000fbff3a00d2
:102910003fb297000400e00003003200890f52002c
:1029200001003100840478000007eb00cfb297006b
:10293000898f520001003600098752004368de008b
:10294000e106600019003a000d0678000900370022
:10295000efb0970000022000ac0c0700e10f400030
:10296000030032002fb097000000e800a0b79f00de
:102970000c06e8008e0f5600f5ff3a000087eb00ca
:102980000a003700880078003100fb00010478005d
:10299000efb097009d0c0700e10f400003003200ec
:1029a000afb097008100e800a1b79f000900e900df
:1029b00080047800e10f4000f2ff3a000006eb00cf
:1029c0000d00e0000a003a00ec033700efb097007a
:1029d000000220008d0c0700e10f400003003200d0
:1029e0002fb197000201e800a2b79f000c06e80093
:1029f0008e0f5600f5ff3a00e00337008fb99700bd
:102a00004300780083bf9f00cf80de000101780083
:102a1000820178000205be000004be000203be0071
:102a20000002be004822de00482edd0004027600cf
:102a3000c47f9f000d48a3000a0032000404e00098
:102a400008003200e14f420006003200d1fb2f00a7
:102a500001804700044878001840980029002000b1
:102a600002003700d07f9f0019002000d2fb2f000a
:102a700002844700a6ff3700c3fb2f0003844700f2
:102a800019002000a2ff37000d0cb30000702000d9
:102a900000826600270232000dc8a3000200320047
:102aa00064002000b4b79f000d48a3000500320069
:102ab0000fba97004401be004400be0084bf9f00cf
:102ac000040037008fba97004500be0085bf9f0005
:102ad0006ffb0700e0af9f00f1af9f0082b79f0040
:102ae00093b79f006022b8006033b8006fa89700ca
:102af000ffa897000fb197009fb1970083fb0700d5
:102b00000000e0000a003d006fa89700ffa89700b2
:102b10000fb197009fb1970003f0a200e0af9f00b4
:102b2000f1af9f0082b79f0093b79f003d00b300b5
:102b30000000eb0080a79f006022b8006033b8005f
:102b40006fa89700ffa897000fb197009fb197005b
:102b500073fb07000000e000340032006fa897000c
:102b6000ffa897000fb197009fb1970071fb070076
:102b700003fc2f000381470099fb07000fa097007b
:102b80000000e9006300b900a20020001100090064
:102b90000200d8008000fd0081a79f000100e00036
:102ba00002003d000100e90080a79f000fa49700ec
:102bb0000840ea0029fe07006faa9700ffaa9700c5
:102bc0000fb397009fb39700bcfa0700a0af9f0018
:102bd000b1af9f00c2af9f00d3af9f006022b8008b
:102be0000600200007ff230048fb07000000e0006c
:102bf00002003d000800e9000b0037006022b80029
:102c000006002000470224002fa89700bfa89700c5
:102c10004fa99700dfa9970074fb07000000e000b0
:102c2000020035000800e80080a79f003fb297002f
:102c3000f80f520057003c00d0c6b300804f52003e
:102c4000290036000485fb0042062000110009001f
:102c50000285d80000017800010478004311dd00ee
:102c60004baa20000b0141006022b80006002000a2
:102c700007fe23000288900092889000b28990009d
:102c8000228990008dfa0700a9002000809fbe00d5
:102c9000110009000984d800000478004f00be002c
:102ca0004344dd000b04440048229000d8229000e9
:102cb00068239000f823900080fa0700801f7800b6
:102cc00001027800110009000985d8000102fd0009
:102cd0004f0078004322dd000b0242005403be0087
:102ce0004402be001f0037000480fb0049aa2000f8
:102cf000ea4f520014003600a20020001100090023
:102d00000280d80000017800010478004311dd0042
:102d1000090141006022b8000600200007fe2300e0
:102d200042209000d2209000f22190006221900079
:102d300062fa07004344dd00090444003802be0083
:102d40002803be00070037004300dd0009004000f3
:102d50006022b8000600200007fe23005001be00dc
:102d60004000be0055fa07000002be000203be008c
:102d70006fa89700ffa897000fb197009fb1970029
:102d80001ffb0700e0af9f00f1af9f0082b79f00dd
:102d900093b79f000fa49700e90f540015003c0063
:102da0006022b8006033b8006fa89700ffa89700b2
:102db0000fb197009fb19700d9fa07000000e0001b
:102dc000320032006fa89700ffa897000fb197005c
:102dd0009fb1970087fb0700e00f5000e08f58007d
:102de000e00f5900e08f590028003a00e10f54002d
:102df000260034000400200005002e00b6e022006a
:102e0000170124002fa89700bfa897004fa997008b
:102e1000dfa99700bdfa07000000e00002003d00b6
:102e200073005400010037007200540080a79f0017
:102e30000fc0970089fd0700a0af9f00b1af9f00b2
:102e4000c2af9f00d3af9f000002be000203be00ce
:102e50006fa89700ffa897000fb197009fb1970048
:102e600095fb070063fb07000205be000004be00df
:102e70006000b8006011b800a0a79f00b1a79f0034
:102e8000c2a79f00d3a79f002e0037006fa897000e
:102e9000ffa897000fb197009fb1970055fb07005f
:102ea0000205be000004be00e00f5000e08f580095
:102eb000e00f5900e08f590002003500d8fb0700f1
:102ec0001300370010002000010020006011b8003e
:102ed00008006000898060000a0161008b81610048
:102ee0008b03d1000a83d3008982d3000882d300e8
:102ef0000000720081807200020173008381730000
:102f0000c7fb07000002be000203be00bcfa0700b8
:102f10000002be000203be006fa89700ffa8970042
:102f20000fb197009fb19700f4fb0700a0a79f0087
:102f3000b1a79f00c2a79f00d3a79f000000eb008e
:102f400080a79f0014c0b30045c020000b003700cd
:102f50000400fb004300dd00050040005001be00fe
:102f60004000be000040e10001c8e10002d0e100e5
:102f700003d8e100030039000442e800f44f520096
:102f8000f3ff3a00c47f9f000400fb00bfb097002e
:102f9000008040008fa09700010040004fb19700d3
:102fa00000075100bfb197000300e00001003200ac
:102fb0000e07e90063806600010032000e07e90099
:102fc0000d28a30026003200e18066000d18a30042
:102fd0000c003200d00220000100e00001003a00a5
:102fe0000080e900efb09700080b0700e10f4000f8
:102ff000180032002fb297000402e800a4b79f0027
:10300000140037000100e00012003200efb097001a
:1030100000022000fd0a0700e10f40000d00320011
:10302000afb297008502e800a5b79f0009003700fe
:10303000efb0970000032000f40a0700e10f400002
:10304000030032002fb697000c06e800acb79f00d3
:103050000e07e9000e00e000f5ff3c003d003700e0
:103060000d38a3000a0032000b003700efb09700c4
:1030700000022000e50a0700e10f400003003200d3
:103080002fb097000000e800a0b79f000e07e900ee
:103090000e00e000f5ff3c00e18066000d18a30083
:1030a0000c003200d00220000100e00001003a00d4
:1030b0000080e900efb09700d40a0700e10f40005c
:1030c00024003200afb097008100e800a1b79f0054
:1030d000200037000100e0001e003200efb0970032
:1030e00000022000c90a0700e10f40001900320069
:1030f0002fb197000201e800a2b79f00150037002a
:103100000000fb004300dd0041c020000100400042
:103110003002be002003be000800be000a01be004f
:10312000d5f80700a4002000050020006033b80097
:10313000d8f807000003b000efb09700b30a07000b
:10314000e10f400003003200afb197008301e800b7
:10315000a3b79f004f7a97000440e900c07f9f000b
:10316000e14f4000e6ff3a000b003700efb0970058
:1031700000032000a50a0700e10f40000300320011
:10318000afb297008502e800a5b79f000fa0970097
:103190000000e90080a79f000fa097000000e0005a
:1031a000f2ff3c003fb6970020c1b300f20f56007b
:1031b00001003c006fe09700c07f9f00cf78970030
:1031c0000100fb003fb1970000005100e0a79f0005
:1031d0000104e00008003200efb09700e002200098
:1031e0008a0a0700e10f400003003200afb19700e8
:1031f0008301e800a3b79f004f78970097fc070072
:103200000002be000203be002fa09700bfa09700df
:103210004fa19700dfa1970028f9070075fa070072
:103220001e0037000000fb004300dd004cc0200002
:103230000c0040003002be002003be000800be00ab
:103240000a01be008cf80700a40020000500200041
:103250006033b8008ff807000003b000efb09700ac
:103260006a0a0700e10f4000030032002fb2970006
:103270000402e800a4b79f00cf7a97000500fb0086
:103280004300dd000c0040003002be002003be0001
:103290000800be000a01be007ef807000205be005d
:1032a0000004be004f7e97000c40e900c07f9f00e5
:1032b000e14f4000dbff3a000006eb000900370059
:1032c000efb0970000032000500a0700e10f400014
:1032d000030032002fb097000000e800a0b79f0065
:1032e0000c06e800efa09700810f5600f4ff3a00ab
:1032f0000d38a300a10132000e00e0009f01340050
:103300000006eb00efb09700000220003f0a070024
:10331000e10f4000030032002fb197000201e800e6
:10332000a2b79f000c06e8008e0f560093013200f2
:10333000f4ff37000d007800000cb20028003a00be
:103340000d00e00005003d008fb997004305be0069
:103350004304be0083bf9f00140037000d48a30044
:103360000b0032000fba97004400be0084bf9f00dc
:103370004f89de00cf91de000002be00020378001c
:10338000820378000605be000404be000700370073
:103390008fba97004500780085bf9f000004780031
:1033a000cfc4de00090578008a057800e00f5400dc
:1033b000e08f5c00e00f5d00e08f5d0020003d00cd
:1033c0003d00b3006000b8006011b8000804500070
:1033d000898458000a0559008b8559001800370068
:1033e0000d00e00005003d000fbe97004c05be003b
:1033f0004c04be008cbf9f00110037000d48a30095
:10340000080032008fba97004500be0085bf9f00bc
:1034100004017800840178000205be000004be00ab
:10342000070037000fbe97004c0078008cbf9f004c
:1034300000047800090020000a0020000b00200092
:103440003fb097000000e00007003a00e00f540092
:10345000e08f5c00e00f5d00e08f5d0002003a004d
:1034600011002000b1b79f000d0778000e0cb200cc
:1034700000042000800f57002f00320003003c00a2
:103480000e00e000070032003f0037000008200077
:10349000800f570014003200000c2000800f5700ee
:1034a00039003a0014c0b30045c020000b003700bb
:1034b0000400fb004300dd00050040005001be0099
:1034c0004000be000040e10001c8e10002d0e10080
:1034d00003d8e1002b0039000442e800f44f520009
:1034e000f3ff3a0027003700000120000100200010
:1034f0006011b80014c0b3000040e10001c8e10051
:1035000002d0e10003d8e1001e0039004500200090
:103510000000d0008180d2000281d2008381d200dd
:103520008502e900faff3a000442e800f04f520039
:10353000f1ff3a0013003700800020000100200056
:103540006011b80014c0b3000040e10001c8e10000
:1035500002d0e10003d8e1000a0039003c0020005d
:103560000000d0008180d2000281d2008381d2008d
:103570000c06e900faff3a000442e800f54f520059
:10358000f1ff3a00c47f9f00cf7897000100fb0055
:103590003fb19700820f500002003d00c27f9f00a4
:1035a00004003700bfb19700808f510001003d003b
:1035b000b0b79f004fb297000400e0000400320053
:1035c00063806600020032000402e900c4b79f0075
:1035d0000de8a3000b003200cfb297003fb6970072
:1035e0008c8f520003003c000000eb00c0b79f002e
:1035f00004003700cfb097003fb1970082805000a1
:10360000c1b79f00cf7997000300fb000002eb00d9
:1036100094a79f00cfb29700808f52000200340021
:103620000080520090a79f000d28a30037003200b1
:10363000e18066000d18a3000c003200d0022000cb
:103640000100e00001003a000080e900efb09700bf
:103650006e090700e10f40000e0032002fb6970000
:103660000c06e800acb79f000a0037000100e0003c
:1036700008003200efb09700000220006309070045
:10368000e10f4000030032002fb097000000e80077
:10369000a0b79f009fa097000100e0000f0032003c
:1036a0000006eb00efb09700000320005709070069
:1036b000e10f4000030032002fb197000201e80043
:1036c000a2b79f000c06e8009fa19700830f560049
:1036d000f4ff3a000002eb0094a79f00bfb29700ee
:1036e000c328dd00c0bf20008080400091af9f0054
:1036f0004228dd006400500080af9f006328b900bd
:10370000f0a79f0063065000820037001fa69700b5
:103710000c00e00011003200688066000f003a00e3
:1037200000067800efb0970000022000370907007c
:10373000e10f4000030032002fb097000000e800c6
:10374000a0b79f000c06e8009fa09700810f5600cd
:10375000f4ff3a000001eb0092a79f00e1806600b1
:103760000d18a3000c003200d00220000100e00080
:1037700001003a000080e900efb09700230907003c
:10378000e10f4000d5ff3200afb197008301e800a0
:10379000a3b79f00d1ff37000100e000cfff320048
:1037a000efb097000002200018090700e10f400069
:1037b000caff32002fb297000402e800a4b79f00ae
:1037c000c6ff370000042000800f57003000320091
:1037d00003003c000e00e000070032003d0037000f
:1037e00000082000800f570011003200000c20005c
:1037f000800f570037003a001fa897003002be0024
:103800002003be000800be000a01be001af7070030
:10381000a4002000050020006033b8001df7070059
:1038200004c3b30004424000c47f9f002900370056
:10383000b5d42000d5b79f000d58a30002003a0070
:10384000c0d52000d0b79f00140020000500200044
:103850006033b8008fa897008100e90005003300ad
:103860000402d0008582d2000683d2008783d20072
:10387000f9ff37000800be000a01be00fef607008f
:103880006f0060005fb19700624078001000370061
:1038900014002000050020006033b8008c0178007f
:1038a0008301e900050033000402d0008582d200c4
:1038b0000683d2008783d200f9ff37000800be00dc
:1038c0000a01be00ecf60700674060000043b0004c
:1038d000c07f9f004f7a97000400fb00efb0970075
:1038e000ca080700e10f400003003200afb29700a2
:1038f0008502e800a5b79f001fa897006800500048
:1039000090af9f008fa89700e480500081af9f0088
:1039100063065600d0ff2f003fb197000090b9001a
:10392000ffa197000080410063005000800f560007
:10393000a4ff3a000d38a300100032001fa2970028
:103940000400e0000d0034000006eb00efb097002b
:1039500000022000ad080700e10f40000300320024
:10396000afb297008502e800a5b79f000c06e800fb
:103970001fa09700800f5600f4ff3a007fb1970018
:10398000b2407800f2b79f00c17f9f000104e000c1
:1039900014fb3a002fb097004f0778004f06be0087
:1039a0004f05be004f04be008f03b10000000600ab
:1039b000889fbe008a9fbe0080407800d0c6b300ba
:1039c00080cf5000290036000185fb004206200010
:1039d000110009000285d800000178000104780078
:1039e0004311dd004baa20000b0141006022b8000a
:1039f0000600200007fe23000288900092889000b5
:103a0000b2899000228990002cf70700a9002000bd
:103a1000809fbe00110009000984d80000047800ce
:103a20004f00be004344dd000b04440048229000d8
:103a3000d822900068239000f82390001ff7070019
:103a4000801f780001027800110009000985d80064
:103a50000102fd004f0078004322dd000b0242000e
:103a60005403be004402be001f0037000180fb006b
:103a700049aa2000eacf500014003600a20020001e
:103a8000110009000280d8000001780001047800cc
:103a90004311dd00090141006022b800060020004a
:103aa00007fe230042209000d2209000f2219000d7
:103ab0006221900001f707004344dd00090444003f
:103ac0003802be002803be00070037004300dd00b7
:103ad000090040006022b8000600200007fe230015
:103ae0005001be004000be00f4f607004f05be00c6
:103af0004f04be0000000600889fbe008a1f7800a9
:103b0000804078000004e00021003d008040ea0091
:103b1000d0c6b30080cf5000090034008104fb0000
:103b200042062000110009008204d800000178003c
:103b3000010078004311dd004aaa20001f00370071
:103b40000100fb0043aa200039003700a20020003a
:103b5000110009000200d80000017800010078007f
:103b60004311dd00030141004300dd00030040007c
:103b70003002be002003be0042209000d220900000
:103b8000f221900062219000ccf607002e00370051
:103b9000d0c6b30080cf5000230034008104fb0066
:103ba00042062000110009008204d80000017800bc
:103bb000010078004311dd004ab520000a014100f0
:103bc000a8002000110009000800d8004300dd0013
:103bd0000a00400040229000d02290006023900014
:103be000f02390000288900092889000b2899000a3
:103bf00022899000b1f60700801f7800010278004a
:103c0000110009008804d8000102fd004f0078006f
:103c10000402fb004322dd000a0242005403be00fe
:103c20004402be00d8ff37000100fb0043b520006e
:103c3000eacf5000c5ff3c004300dd000300400018
:103c40005001be004000be004f0578004f04be008a
:103c500000000600ef04b000889fbe008a9fbe00ef
:103c60008c9fbe008e1f78006022b8006033b800c1
:103c7000e4a79f00f5a79f0086af9f0097af9f0026
:103c8000a0af9f00b1af9f00c2af9f008002eb00ca
:103c9000a5a79f00d00737008001eb0050c2b300fa
:103ca00080cf5000090032000100fb00afa8970050
:103cb000d6070700e10f4000c70732002fa3970087
:103cc0000603e800a6a79f00c3073700bfab970015
:103cd00097407800b0c2b30080cf50001900320086
:103ce00007003c006b40500080cf500010003200b5
:103cf0006340400080cf500021003a00160037009a
:103d0000d0c2b30080cf50000400320063404000b6
:103d100080cf50001a003a00140037000330a00092
:103d20003fac97000804e800b8af9f00e7ff3700fa
:103d30000300a000bfac97008904e800b9af9f0062
:103d4000e2ff37000310a0003fad97000a05e8002e
:103d5000baaf9f00ddff370003b0a000bfad9700f2
:103d60008b05e800bbaf9f00d8ff37000320a00001
:103d70003fa897000000e800b0af9f00d3ff3700d6
:103d80000318a300010032000300a1000338a300c0
:103d9000010032000320a1000100fb0002fd2f0002
:103da00002004000e90f500010003e008000eb00d0
:103db000e1979f00020278006f9197006a10b900a6
:103dc000bfaa97001501fb0000014100040141005a
:103dd000e2979f005500fb00b5af9f000400400034
:103de000e90f50000d003e00f3ff37000003eb0029
:103df000e6979f00a0c2b30080cf500007003a00b2
:103e0000cfab970047047800c7af9f00e8979f00ab
:103e1000bfac97008904e800b9af9f00e0c2b300cf
:103e20003fad97009a4f100021003a0083067800ba
:103e30000de0a0008a00e80064405000914f10009f
:103e400004003200b1af9f008005eb00bba79f00cc
:103e5000100037004fa89700c0007800c0af9f0047
:103e6000b1a79f003fa997000281e800b2af9f0071
:103e7000130037003fa297006a20b90000004100fc
:103e800003004000b0a79f00bfaa97008502e8008a
:103e9000b5af9f003fab97001601fb0003fd2f005d
:103ea00003004100e90f5000f2ff36000400370024
:103eb000830678000dc0a0008003eb00b7a79f0029
:103ec0003fac9700b8407800b8af9f00e1679f0013
:103ed00070c6b30080cf50003c00320017003c0099
:103ee0006440500080cf50008f0032000e003c0034
:103ef0007c40500080cf50003300320006003c0070
:103f00000104e0003a07320000c0e90080cf500011
:103f1000aa003a002900370080c5b30080cf5000c6
:103f2000a6003a002d00370050c6b30080cf5000e5
:103f3000230032001f003c00a700370000c7b30079
:103f400080cf5000250032000a003c006440500041
:103f500080cf5000110032006340400080cf5000fd
:103f60001c0032006640500080cf500093003a00a1
:103f70009900370050c7b30080cf50009500320041
:103f80006340400080cf5000150032006540500073
:103f900080cf500089003a0013003700000028004d
:103fa0000d48a30001003a00000120008086760041
:103fb000c3ff37000da0a000870037000d50a00000
:103fc0000d80a000840037000d50a0000d90a000cf
:103fd000810037000d60a0007f0037000d50a00069
:103fe0000d70a0007c003700cfac9700490078002e
:103ff000c9af9f00e0a79f000000e00002003a0068
:10400000ebd62000eba79f000000eb00f0a79f007d
:10401000020037008100e800f1a79f00ffa0970091
:104020006fa19700028040001004e000f9ff3a0001
:10403000bfa197000300e000040032007fa29700b8
:10404000848f510001003100f3a79f007fa09700eb
:104050000005eb006f939700800f530001003600be
:10406000000553004368de00e104600019003a00d7
:104070000904780009003700afa89700000220006b
:10408000e2060700e10f400003003200afa39700f3
:104090008703e800a7a79f000804e8008a0f5400e0
:1040a000f5ff3a000085eb000a003700efa097000b
:1040b0003100fb00e1a79f00afa89700d3060700df
:1040c000e10f4000030032002fa497000804e8002d
:1040d000a8a79f00ffa597000b00e900f0a79f008d
:1040e000e10f4000f1ff3a000004eb000900e0009e
:1040f0000a003a00b8063700afa897000002200077
:10410000c2060700e10f4000030032002fa1970014
:104110000201e800a2a79f000804e8008a0f5400eb
:10412000f5ff3a00ac063700cfa9970043007800ae
:10413000c3af9f00cf80de000101780082017800cc
:104140000203be000002be00e0a79f00f1a79f008f
:1041500082af9f0093af9f004822de00482cdd0015
:1041600004027400e4679f000d48a3000c003200b5
:104170000404e0000a003200e14f4200080032006f
:1041800079fa2f0009804700044878004fcd970046
:104190001a4098002b002000fba79f000300370067
:1041a000f0679f0010002000f0a79f0071fa2f0019
:1041b00081804700e1a79f009dff370062fa2f0032
:1041c0000f014100e2a79f0013002000f3a79f000a
:1041d00097ff37000d0cb3000070200000826600ce
:1041e000820432000dc8a3000200320064002000e7
:1041f000b4a79f000d48a300090032004fa8970004
:104200004005be004004be00c0af9f00e89f9f0075
:10421000f99f9f008aa79f009ba79f000800370077
:104220004fa997004200be00c2af9f0098f507005b
:10423000e09f9f00f19f9f0082a79f0093a79f0090
:104240006022b8006033b8006f989700ff9897001d
:104250000fa197009fa19700acf507000000e000b8
:104260000a003d006f9a9700ff9a97000fa39700ee
:104270009fa3970007f0a200e49f9f00f59f9f0077
:1042800086a79f0097a79f003d00b3000000eb00aa
:10429000d0979f006022b8006033b8006f989700f5
:1042a000ff9897000fa197009fa197009cf507002a
:1042b0000000e000340032006f989700ff989700ec
:1042c0000fa197009fa197009af50700a5fa2f006c
:1042d00005814700c2f507005f9097000000e900e4
:1042e0006300b900a2002000110009000200d800fc
:1042f0008000fd00d1979f000100e00002003d001a
:104300000100e900d0979f005f9497000840ea0001
:10431000f9fd07006f9a9700ff9a97000fa3970087
:104320009fa39700e5f40700a09f9f00b19f9f0007
:10433000c29f9f00d39f9f006022b800060020000c
:1043400007ff230071f507000000e00002003d00b8
:104350000800e9000b0037006022b80006002000ca
:10436000470224002f989700bf9897004f99970015
:10437000df9997009df507000000e000020035007e
:104380000800e800d0979f005f939700d6a79f0092
:104390000600e00003003c0010c0b300e0679f008f
:1043a00002003700afcb9700e7679f000d0678004b
:1043b0000c10b20008003a000d98a30077023200fa
:1043c0005fa49700e40f440003003500bfa49700ea
:1043d000890f5400f20135003fa597000a00e00064
:1043e000040032000d98a300020032000a05e90023
:1043f000baa79f00bfa5970020c1b300f28f550058
:1044000001003e006fc09700e0679f006022b80087
:104410006033b8006f989700ff9897000fa197003e
:104420009fa197003ef507000000e0006d003200fc
:104430006f659700afc897000ac05000aefd070037
:104440000002be000203be006f989700ff9897001d
:104450000fa197009fa1970017f60700e09f9f000c
:10446000f19f9f0082a79f0093a79f00a5f60700da
:104470000004be00c9f60700e00f5400e08f5c00a6
:1044800004003d006022b80006002000071f240041
:104490005bf507000002be000203be006f989700a4
:1044a000ff9897000fa197009fa1970093f6070030
:1044b0006022b8000600200007fe23004bf507002d
:1044c0000000e0000c0035006022b800060020006b
:1044d00007fe23006f989700ff9897000fa19700a1
:1044e0009fa1970046f50700e09f9f00f19f9f0066
:1044f00082a79f0093a79f006f989700ff9897004f
:104500000fa197009fa197007ef607000002be0052
:104510006033b8000a00fb004304dd0049ca2000f4
:1045200009004400d000900060019000f00190006c
:10453000400090000020e10001a8e10002b0e1008d
:1045400003b8e100100039000400200005002a0033
:104550009699290097fb23006f989700ff98970082
:104560000fa197009fa1970054f40700e09f9f00c0
:10457000f19f9f0082a79f0093a79f005fa19700d4
:104580000200e80016003700090044005001be0098
:104590004000be000020e10001a8e10002b0e100ff
:1045a00003b8e1000f0031006022b80006002000cf
:1045b000470224006f989700ff9897000fa197007b
:1045c0009fa197003df40700e09f9f00f19f9f008f
:1045d00082a79f0093a79f00dfa197000300e90037
:1045e000d0979f004968de006100600080cf9f0087
:1045f0000004e000400032000080200000866600d9
:104600003d003a00bfa29700f48f52000200340030
:1046100046012000b6a79f006f989700ff9897006b
:104620000fa197009fa1970036f607000004be0077
:104630000c0578008c0578000b003700bfa39700ad
:104640008703e900b7a79f00a40020000500200011
:104650006033b8000800be000a01be0086f3070000
:104660000205be000004be00e00f5400e08f5c00b5
:10467000e00f5d00e08f5d000b003200a400200021
:10468000050020006033b8000800be000a01be002b
:1046900080f30700e00f5000e08f5800e00f590052
:1046a000e08f5900e5ff3200ef6097000100fb004a
:1046b0003fa49700800f54000f003d0008c0500039
:1046c0000dfd07000002be000203be006f989700b8
:1046d000ff9897000fa197009fa1970076f507001c
:1046e000e09f9f00f19f9f0082a79f0093a79f00dc
:1046f000efc49700e9679f006f959700bfa59700eb
:104700000b005500650650000b00e00002003a0067
:104710000db8a300010032006606500063806600f9
:10472000010032000c06e9000d28a300260032002b
:10473000e18066000d18a3000c003200d0022000ba
:104740000100e00001003a000080e900afa89700f6
:104750002e050700e10f4000180032002fa097003f
:104760000000e800a0a79f00140037000100e0004f
:1047700012003200afa897000002200023050700b6
:10478000e10f40000d003200afa097008100e8006b
:10479000a1a79f0009003700afa8970000032000e1
:1047a0001a050700e10f4000030032002fa1970017
:1047b0000201e800a2a79f000c06e9000c00e0003f
:1047c000f5ff3c002e0037000d38a3000a00320030
:1047d0000b003700afa89700000220000b05070070
:1047e000e10f400003003200afa197008301e80011
:1047f000a3a79f000c06e9000c00e000f5ff3c00b9
:10480000e18066000d18a30013003200d0022000e2
:104810000100e00001003a000080e900afa8970025
:10482000fa040700e10f4000150032002fa29700a4
:104830000402e800a4a79f0011003700e8a79f002a
:10484000f9a79f008aaf9f009baf9f008042eb00bb
:10485000e5679f00800037000100e000080032009b
:10486000afa8970000022000e8040700e10f400015
:10487000030032002fa397000603e800a6a79f00bd
:104880006f989700ff9897000fa197009fa197003e
:104890009cf507000004be006055b800ef63970068
:1048a0000700fb004300dd004eca20000e00400060
:1048b0003002be002003be000800be000a01be0098
:1048c000edf207000003b000afa89700cf04070087
:1048d000e10f4000030032002fa097000000e80025
:1048e000a0a79f00ef6097000100fb004300dd00e0
:1048f0000e0040003002be002003be000800be00d3
:104900000a01be00e3f207000205be000004be007b
:10491000e0a79f00f1a79f0082af9f0093af9f0089
:10492000bfa297000500e00002003a000db8a30006
:1049300049003200afa89700e0022000b30407004e
:10494000e10f4000030032002fa397000603e800a8
:10495000a6a79f00ef6397000700fb00bfa097008a
:1049600000805000809f9f00240037000fc99700ef
:104970000204e00005003200e00f5400e08f5c000c
:10498000e00f5d00e08f5d00acff32000000fb0037
:104990004300dd004eca20000e0040003002be0081
:1049a0002003be000800be000a01be00b2f20700ec
:1049b0000003b000afa8970094040700e10f400087
:1049c00003003200afa197008301e800a3a79f0076
:1049d0006f6297000400fb004300dd000e00400002
:1049e0003002be002003be000800be000a01be0067
:1049f000a8f207000205be000004be00ef629700a7
:104a00000540e900e0679f00e14f4000d7ff3a0012
:104a1000e8a79f00f9a79f008aaf9f009baf9f0068
:104a20000004eb0009003700afa897000003200046
:104a300076040700e10f4000030032002fa3970027
:104a40000603e800a6a79f000804e8008f9b9700d4
:104a5000870f5400f4ff3a000d58a30009003200fc
:104a6000afa897005004200068040700e10f400041
:104a70000c0032002fa497000804e800a8a79f00ac
:104a800008003700afa89700500620005f04070019
:104a9000e10f400003003200afa497008904e80052
:104aa000a9a79f005f9097000000e0000b003d0069
:104ab0000000ea00d0979f00afa89700d002200026
:104ac00052040700e10f40000c0032002fa59700b0
:104ad0000a05e800aaa79f0008003700afa89700c2
:104ae000b002200049040700e10f4000030032003b
:104af000afa597008b05e800aba79f005f909700dc
:104b0000a8002000110009000800d8000003b00030
:104b1000afa897003d040700e10f400003003200fa
:104b20002fa097000000e800a0a79f00df9097004b
:104b3000110009008800d8008000fd000003b000cb
:104b4000afa8970031040700e10f400003003200d6
:104b5000afa097008100e800a1a79f000d38a30037
:104b60001d0432000c00e0001b0434000004eb00c4
:104b7000afa897000002200024040700e10f4000c6
:104b8000030032002fa197000201e800a2a79f00b6
:104b90000804e8008c0f54000f043200f4ff3700c3
:104ba000dfa197000300e00004003d003fa2970052
:104bb000030052000000e900b0a79f006f98970023
:104bc000ff9897000fa197009fa1970009f4070095
:104bd0000205be000004be000c42780045ca200059
:104be0000b0037000400fb004300dd00050040001f
:104bf0005001be004000be000040e10001c8e100dd
:104c000002d0e10003d8e100030039000442e800cb
:104c1000f44f5200f3ff3a00e4679f000400fb00ea
:104c2000bfa2970000875200f80f57000d003c000c
:104c30000e4078005efb07000002be000203be00cb
:104c40006f989700ff9897000fa197009fa197007a
:104c50006bf30700e09f9f00f19f9f0082a79f00da
:104c600093a79f000e407800a3fb0700d0af9f00e2
:104c7000e1af9f00f2af9f0083b79f00e00f5400a9
:104c8000e08f5c00e00f5d00e08f5d000400350008
:104c90000800be000a01be0061f4070013003700df
:104ca00010002000010020006011b8000800600022
:104cb000898060000a0161008b8161008b03d10053
:104cc0000a83d3008982d3000882d30000007200d7
:104cd00081807200020173008381730050f4070029
:104ce0000002be000203be0045f307000002be0042
:104cf0000203be006f989700ff9897000fa19700de
:104d00009fa197007df407000002be000203be00d1
:104d10005fa89700efa897007fa997008fb1970031
:104d200066f20700b3f307000205be000004be00f0
:104d30000006eb0008003700a4002000050020005a
:104d40006033b8000800be000a01be00caf10700c7
:104d50000205be000004be000c035700b6a79f006a
:104d60008e0f56001d0032000c06e800a400200043
:104d7000050020006033b8000800be000a01be0034
:104d8000c4f10700e00f5000e08f5800e00f590019
:104d9000e08f5900e8ff320010003700bfa39700f2
:104da000f88f53000d003c000740780000fb07001f
:104db0000002be000203be006f989700ff989700a4
:104dc0000fa197009fa197000df30700e09f9f00a0
:104dd000f19f9f0082a79f0093a79f005fa4970069
:104de000e90f540015003c006022b8006033b800a1
:104df0006f989700ff9897000fa197009fa19700c9
:104e0000c7f207000000e000360032006f989700fc
:104e1000ff9897000fa197009fa1970075f30700d7
:104e2000e00f5000e08f5800e00f5900e08f59006c
:104e30002c003a00e10f54002a0034000400200046
:104e400005002e00b6e02200170124002f989700dd
:104e5000bf9897004f999700df999700abf2070032
:104e60000000e00003003d00dfa4970073805400c1
:104e7000020037005fa5970072005500d0979f0091
:104e80002f6897001cfb0700a09f9f00b19f9f0009
:104e9000c29f9f00d39f9f000002be000203be007e
:104ea0006f989700ff9897000fa197009fa1970018
:104eb00081f307004ff30700e0a79f00f1a79f00d1
:104ec00082af9f0093af9f006000b8006011b800f0
:104ed000d0b79f00e1b79f00f2b79f0083bf9f004c
:104ee000340037006f989700ff9897000fa1970044
:104ef0009fa197003ff30700e0a79f00f1a79f0045
:104f000082af9f0093af9f00e00f5000e08f5800ea
:104f1000e00f5900e08f590002003500c0f3070090
:104f20001700370010002000010020006011b800b9
:104f30006fa29700ffa297000fab97009fab97005f
:104f400004006000858060000601610087816100c7
:104f50008703d1000683d3008582d3000482d30067
:104f6000000072008180720002017300838173006f
:104f7000abf307000002be000203be00a0f2070070
:104f80000002be000203be006f989700ff989700d2
:104f90000fa197009fa19700d8f30700d0b79f00fb
:104fa000e1b79f00f2b79f0083bf9f000000eb00b6
:104fb000d0979f0014c0b30045ca20000f003700ef
:104fc0000400fb004300dd00050340003600be0086
:104fd0002601be006fa49700ffa497000fad9700b5
:104fe0009fad97000040e10001c8e10002d0e10060
:104ff00003d8e100030039000442e800f44f5200f6
:10500000efff3a00e4679f000400fb00bfa4970095
:1050100000804400df909700010040006f959700ea
:10502000000655004b68de00610060000047780014
:105030000004e00002003a000900e0000100320034
:105040000c06e90063806600010032000c06e900ee
:105050000d28a30026003200e18066000d18a30091
:105060000c003200d00220000100e00001003a00f4
:105070000080e900afa89700e4020700e10f4000bc
:1050800018003200afa597008b05e800aba79f0082
:10509000140037000100e00012003200afa89700b2
:1050a00000022000d9020700e10f40000d0032008d
:1050b0002fa097000000e800a0a79f00090037007c
:1050c000afa8970000032000d0020700e10f4000c6
:1050d00003003200afa097008100e800a1a79f0065
:1050e0000c06e9000c00e000f5ff3c003f00370033
:1050f0000d38a3000a0032000b003700afa897005c
:1051000000022000c1020700e10f4000030032004e
:105110002fa197000201e800a2a79f000c06e9005a
:105120000c00e000f5ff3c00e18066000d18a300d4
:105130000c003200d00220000100e00001003a0023
:105140000080e900afa89700b0020700e10f40001f
:1051500026003200afa197008301e800a3a79f00bb
:10516000220037000100e00020003200afa89700c5
:1051700000022000a5020700e10f40001b003200e2
:105180002fa297000402e800a4a79f001700370091
:105190000000fb004300dd0041ca20000100400088
:1051a0003002be002003be006fa09700ffa0970052
:1051b0000fa997009fa99700aff00700a400200057
:1051c000050020006033b800b2f007000003b00013
:1051d000afa897008d020700e10f400003003200e6
:1051e000afa297008502e800a5a79f006f63970014
:1051f0000640e900e0679f00e14f4000e4ff3a000d
:105200000b003700afa89700000320007f020700c3
:10521000e10f400003003200afa397008703e800ce
:10522000a7a79f005f9097000000e900d0979f001c
:105230005f9097000000e000f2ff3c003fa4970061
:10524000f20f54000300340020c1b300e0679f0058
:1052500002003700efc49700e9679f00ef609700f6
:105260000100fb003fa5970000005500f0979f004c
:105270000104e00002003a000e04e00008003200e1
:10528000afa89700e002200060020700e10f400095
:1052900003003200afa597008b05e800aba79f0085
:1052a0006f60970014fa07000002be000203be0000
:1052b0005fb09700efb097007fb197008fb997006c
:1052c000fef007004bf207001e0037000000fb0055
:1052d0004300dd004eca20000e0040003002be0038
:1052e0002003be000800be000a01be0062f00700f5
:1052f000a4002000050020006033b80065f007001e
:105300000003b000afa8970040020700e10f400083
:10531000030032002fa097000000e800a0a79f0024
:10532000ef6097000100fb004300dd000e0040002d
:105330003002be002003be000800be000a01be000d
:1053400054f007000205be000004be006f61970024
:105350000240e900e0679f00e14f4000dbff3a00b8
:10536000e8a79f00f9a79f008aaf9f009baf9f000f
:105370000004eb0009003700afa8970000032000ed
:1053800022020700e10f400003003200afa19700a6
:105390008301e800a3a79f000804e8007f9297001c
:1053a000840f5400f4ff3a000d38a3000a023200c3
:1053b0000c00e000080234000004eb00afa89700e6
:1053c0000002200011020700e10f4000030032003c
:1053d000afa297008502e800a5a79f000804e80097
:1053e0008c0f5400fc013200f4ff37000d007800f0
:1053f000000cb20032003a000d00e00009003d0050
:105400004fa897004005be004004be00c0af9f00fb
:10541000e8a79f00f9a79f008aaf9f009baf9f005e
:10542000160037000d48a300090032004fa997006d
:105430004200be00c2af9f004f89de00cf91de0068
:105440000002be00020378008203780007003700e4
:10545000cfa9970043007800c3af9f0000027800f7
:10546000cfa2de000503780086037800e4a79f0042
:10547000f5a79f0086af9f0097af9f006fa497008e
:10548000ffa497000fad97009fad9700e00f540069
:10549000e08f5c00e00f5d00e08f5d0026003d00c6
:1054a0003d00b3006000b8006011b800080450006f
:1054b000898458000a0559008b8559001a00370065
:1054c0000d00e00005003d004faa97004401be001a
:1054d0004400be00c4af9f00070037000d48a30082
:1054e0000a003200cfaa97004500be00c5af9f005a
:1054f0000401780084017800e0a79f00f1a79f00d5
:1055000082af9f0093af9f000b0037004fab970017
:1055100046007800c6af9f00000478000900200014
:105520000a0020000b002000e8a79f00f9a79f00b9
:105530008aaf9f009baf9f00bfa497000900e000c7
:105540000b003a006fa09700ffa097000fa99700eb
:105550009fa99700e00f5000e08f5800e00f59001e
:10556000e08f590002003a0011002000b1a79f000f
:105570000d0678000c0cb20000042000800f5600cd
:105580003700320003003c000c00e000070032004e
:105590004b00370000082000800f56001800320032
:1055a000000c2000800f560045003a0014c0b300e4
:1055b00045ca20000f0037000400fb004300dd0057
:1055c000050040005001be004000be006fa49700df
:1055d000ffa497000fad97009fad97000040e1003a
:1055e00001c8e10002d0e10003d8e1003300390036
:1055f0000442e800f44f5200efff3a002f0037005a
:1056000000012000010020006011b80014c0b300a8
:105610006fa49700ffa497000fad97009fad970070
:105620000040e10001c8e10002d0e10003d8e10040
:1056300022003900490020000000d0008180d20003
:105640000281d2008381d2008904e900faff3a0086
:105650000442e800f04f5200edff3a001700370017
:1056600080002000010020006011b80014c0b300c9
:105670006fa49700ffa497000fad97009fad970010
:105680000040e10001c8e10002d0e10003d8e100e0
:105690000a003900390020000000d0008180d200cb
:1056a0000281d2008381d2008904e900faff3a0026
:1056b0000442e800f54f5200edff3a00e4679f0016
:1056c0006f6597000a00fb00bfa597008b0f500085
:1056d00002003d00eb679f0004003700bfa0970069
:1056e000808f500001003d00b0a79f006f91970090
:1056f0000200e00004003200638066000200320015
:105700000201e900e2979f000de8a3000b003200c0
:10571000ef9197003fa29700848f510003003c0057
:105720008002eb00e5979f00040037006f9397001d
:10573000bfa3970007035300e6979f00408c20000b
:105740000080660001842000810f500006003a00ae
:105750006f9497000800e000110032000804e9008f
:10576000e8979f000e003700008c20000080660044
:1057700001882000810f500009003a00ef94970043
:10578000e28f540003003c000005eb00ea979f0005
:1057900003003700ef9597008b85e900eb979f009a
:1057a000ef6097000100fb000007eb006f9197008e
:1057b000800f510001003400000751000d28a300a4
:1057c0004b003200e18066000d18a3000c0032008f
:1057d000d00220000100e00001003a000080e90052
:1057e000afa8970009010700e10f40002700320031
:1057f000afa197008301e800a3a79f002300370013
:105800000100e00009003200afa89700000220006c
:10581000fe000700e10f40001c0032002fa297009d
:105820000402e800a4a79f0018003700008c2000a5
:105830000080660001882000810f500013003a00ac
:10584000afa8970000032000f0000700e10f400020
:1058500003003200afa297008502e800a5a79f00d1
:10586000800520000d58a30001003a0080072000a9
:10587000afa89700e5000700e10f400003003200e9
:105880002fa397000603e800a6a79f000e00e000e4
:105890000d0032000004eb00afa8970000032000c9
:1058a000da000700e10f400003003200afa39700c9
:1058b0008703e800a7a79f000804e8008e0f5400a4
:1058c000f5ff3a000007eb003fa49700c340dd005e
:1058d000c0c92000808540004240dd0064055000c2
:1058e0006340b900909f9f0063045000a2003700fe
:1058f0000e00e0000f003200688066000d003a00e4
:1059000000047800afa8970000022000bf00070045
:10591000e10f400003003200afa497008904e800c3
:10592000a9a79f000804e8008e0f5400f5ff3a0075
:105930000007eb00e18066000d18a3000c003200a8
:10594000d00220000100e00001003a000080e900e0
:10595000afa89700ad000700e10f40000e00320035
:105960002fa597000a05e800aaa79f000a003700a4
:105970000100e00008003200afa8970000022000fc
:10598000a2000700e10f400003003200afa597001e
:105990008b05e800aba79f00008c2000808066008c
:1059a00000842000808f500009003a00afa89700c3
:1059b0000003200095000700e10f4000c2ff320005
:1059c0002fa097000000e800a0a79f00beff3700af
:1059d00000882000808f5000bbff3a00afa89700de
:1059e0000003200089000700e10f4000030032009f
:1059f000afa097008100e800a1a79f0080052000cc
:105a00000d58a30001003a0080072000afa89700be
:105a10007e000700e10f4000abff32002fa197008e
:105a20000201e800a2a79f00a7ff370000042000a2
:105a3000800f56003100320003003c000c00e000f3
:105a4000070032004000370000082000800f560099
:105a500012003200000c2000800f56003a003a007d
:105a60003b02be002b03be006fa09700ffa0970073
:105a70000fa997009fa997007fee0700a4002000c0
:105a8000050020006033b80082ee070004c3b300b5
:105a900004424000e4679f002b00370059d72000e4
:105aa0000d58a30001003a0069d82000140020001e
:105ab000050020006033b8000a0078000000e9000b
:105ac000050033000402d0008582d2000683d20094
:105ad0008783d200f9ff37006fa09700ffa09700df
:105ae0000fa997009fa9970063ee07006f00600061
:105af000e9447800e9679f00130037001400200094
:105b0000050020006033b800880078008100e900bb
:105b1000050033000402d0008582d2000683d20043
:105b20008783d200f9ff37006fa09700ffa097008e
:105b30000fa997009fa997004fee070067406000ec
:105b40000043b000e0679f006f6197000200fb0018
:105b5000afa897002d000700e10f400003003200be
:105b6000afa197008301e800a3a79f00e885550037
:105b70006405550063045400d0ff2f003fa2970036
:105b800000a0b9009f9a9700008042006300500077
:105b9000800f5400a5ff3a000d38a3000e0032001c
:105ba0000e00e0000c0034000004eb00afa89700ea
:105bb0000002200015000700e10f40000300320042
:105bc0002fa397000603e800a6a79f000804e8009b
:105bd0008e0f5400f5ff3a00bfab9700b740780036
:105be000b7af9f00e1679f000104e0002af83a0088
:105bf0002fa097004f0778004f06be004f05be004c
:105c00004f04be00ef04b10000000600889fbe00f4
:105c10000001780001047800b10090000118a30091
:105c20003d0032000198a30003003a0018009000e4
:105c30000000e00038003a000190a0003104980014
:105c400082047800f90fb200180090000000e00014
:105c500002003a0028009000000c7800ea8f5400ff
:105c600006003a00380090000078a30003003a00d4
:105c700088007800d0002000e4ff07009800900022
:105c800058009000808f50000b0032000100e800a7
:105c9000100498001800780009587800000c78006b
:105ca00011c0b30080dc200001487800ea8f540066
:105cb000060032001900370088007800094078009b
:105cc00019000700800478001400370038009000a5
